:060000000A128A11FC2F18
:100E8A00F70075080A128A1159270A128A11770877
:100E9A000A128A1159270A128A1176080A128A1125
:100EAA0059270A128A110800F300F4017308F200A4
:100EBA007408073C013E632F0310F20CFF3E031D2A
:100ECA00612F720801390A128A1178270A128A11C7
:100EDA000130FF007F08F40708307402031C762FE4
:100EEA00772F5B2F0800F10083120313881471080F
:100EFA000319802F812F932F0714E930F000F00B8C
:100F0A00842F8312031307100715C730F000F00B64
:100F1A008C2F8F2F831203130711A72F07147430F6
:100F2A00F000F00B962F00008312031307108715A9
:100F3A009F30F000A02FF00B9F2FA32FA42F831216
:100F4A00031387110800831603130710871007116C
:100F5A00871188108312031387140714F501F60109
:100F6A00FF300A128A1145270A128A110330FA0041
:100F7A008A30F9005530F800F80BC12FF90BC12F50
:100F8A00FA0BC12FC82F8312031307108710FF30E3
:100F9A00F500F60100300A128A1145270A128A1151
:100FAA000330FA008A30F9005530F800F80BDB2FCD
:100FBA00F90BDB2FFA0BDB2FE22FF501FF30F600DE
:100FCA0000300A128A1145270A128A110330FA00E0
:100FDA008A30F9005530F800F80BF12FF90BF12F90
:100FEA00FA0BF12FF82FAF2F0A128A11002883016A
:060FFA000A128A11A82F63
:02400E007A3FF7
:00000001FF
